{
  "address": "0x5FbDB2315678afecb367f032d93F642f64180aa3",
  "abi": [
    {
      "inputs": [],
      "stateMutability": "nonpayable",
      "type": "constructor"
    },
    {
      "anonymous": false,
      "inputs": [
        {
          "indexed": false,
          "internalType": "address",
          "name": "previousAdmin",
          "type": "address"
        },
        {
          "indexed": false,
          "internalType": "address",
          "name": "newAdmin",
          "type": "address"
        }
      ],
      "name": "AdminChanged",
      "type": "event"
    },
    {
      "anonymous": false,
      "inputs": [
        {
          "indexed": true,
          "internalType": "address",
          "name": "beacon",
          "type": "address"
        }
      ],
      "name": "BeaconUpgraded",
      "type": "event"
    },
    {
      "anonymous": false,
      "inputs": [
        {
          "indexed": true,
          "internalType": "address",
          "name": "addr",
          "type": "address"
        },
        {
          "indexed": false,
          "internalType": "bool",
          "name": "status",
          "type": "bool"
        }
      ],
      "name": "ContractAllowed",
      "type": "event"
    },
    {
      "anonymous": false,
      "inputs": [
        {
          "indexed": true,
          "internalType": "address",
          "name": "user",
          "type": "address"
        },
        {
          "indexed": true,
          "internalType": "address",
          "name": "addr",
          "type": "address"
        },
        {
          "indexed": false,
          "internalType": "bool",
          "name": "status",
          "type": "bool"
        }
      ],
      "name": "ContractApproved",
      "type": "event"
    },
    {
      "anonymous": false,
      "inputs": [
        {
          "indexed": true,
          "internalType": "address",
          "name": "user",
          "type": "address"
        },
        {
          "indexed": true,
          "internalType": "address",
          "name": "token",
          "type": "address"
        },
        {
          "indexed": false,
          "internalType": "uint256",
          "name": "amount",
          "type": "uint256"
        },
        {
          "indexed": false,
          "internalType": "uint256",
          "name": "share",
          "type": "uint256"
        }
      ],
      "name": "Deposited",
      "type": "event"
    },
    {
      "anonymous": false,
      "inputs": [
        {
          "indexed": true,
          "internalType": "address",
          "name": "user",
          "type": "address"
        },
        {
          "indexed": true,
          "internalType": "address",
          "name": "token",
          "type": "address"
        },
        {
          "indexed": false,
          "internalType": "uint256",
          "name": "amount",
          "type": "uint256"
        },
        {
          "indexed": false,
          "internalType": "bytes",
          "name": "data",
          "type": "bytes"
        },
        {
          "indexed": false,
          "internalType": "uint256",
          "name": "fee",
          "type": "uint256"
        }
      ],
      "name": "Flashloaned",
      "type": "event"
    },
    {
      "anonymous": false,
      "inputs": [
        {
          "indexed": false,
          "internalType": "uint8",
          "name": "version",
          "type": "uint8"
        }
      ],
      "name": "Initialized",
      "type": "event"
    },
    {
      "anonymous": false,
      "inputs": [
        {
          "indexed": true,
          "internalType": "address",
          "name": "previousOwner",
          "type": "address"
        },
        {
          "indexed": true,
          "internalType": "address",
          "name": "newOwner",
          "type": "address"
        }
      ],
      "name": "OwnershipTransferred",
      "type": "event"
    },
    {
      "anonymous": false,
      "inputs": [
        {
          "indexed": false,
          "internalType": "address",
          "name": "account",
          "type": "address"
        }
      ],
      "name": "Paused",
      "type": "event"
    },
    {
      "anonymous": false,
      "inputs": [
        {
          "indexed": true,
          "internalType": "address",
          "name": "sender",
          "type": "address"
        },
        {
          "indexed": true,
          "internalType": "address",
          "name": "receiver",
          "type": "address"
        },
        {
          "indexed": true,
          "internalType": "address",
          "name": "token",
          "type": "address"
        },
        {
          "indexed": false,
          "internalType": "uint256",
          "name": "share",
          "type": "uint256"
        }
      ],
      "name": "Transfered",
      "type": "event"
    },
    {
      "anonymous": false,
      "inputs": [
        {
          "indexed": false,
          "internalType": "address",
          "name": "account",
          "type": "address"
        }
      ],
      "name": "Unpaused",
      "type": "event"
    },
    {
      "anonymous": false,
      "inputs": [
        {
          "indexed": true,
          "internalType": "address",
          "name": "implementation",
          "type": "address"
        }
      ],
      "name": "Upgraded",
      "type": "event"
    },
    {
      "anonymous": false,
      "inputs": [
        {
          "indexed": true,
          "internalType": "address",
          "name": "user",
          "type": "address"
        },
        {
          "indexed": true,
          "internalType": "address",
          "name": "receiver",
          "type": "address"
        },
        {
          "indexed": true,
          "internalType": "address",
          "name": "token",
          "type": "address"
        },
        {
          "indexed": false,
          "internalType": "uint256",
          "name": "amount",
          "type": "uint256"
        },
        {
          "indexed": false,
          "internalType": "uint256",
          "name": "share",
          "type": "uint256"
        }
      ],
      "name": "Withdrawed",
      "type": "event"
    },
    {
      "inputs": [],
      "name": "CALLBACK_SUCCESS",
      "outputs": [
        {
          "internalType": "bytes32",
          "name": "",
          "type": "bytes32"
        }
      ],
      "stateMutability": "view",
      "type": "function"
    },
    {
      "inputs": [],
      "name": "FEE_MAX",
      "outputs": [
        {
          "internalType": "uint256",
          "name": "",
          "type": "uint256"
        }
      ],
      "stateMutability": "view",
      "type": "function"
    },
    {
      "inputs": [],
      "name": "INIT_SHARE",
      "outputs": [
        {
          "internalType": "uint256",
          "name": "",
          "type": "uint256"
        }
      ],
      "stateMutability": "view",
      "type": "function"
    },
    {
      "inputs": [
        {
          "internalType": "address",
          "name": "addr",
          "type": "address"
        },
        {
          "internalType": "bool",
          "name": "status",
          "type": "bool"
        }
      ],
      "name": "allowContract",
      "outputs": [],
      "stateMutability": "nonpayable",
      "type": "function"
    },
    {
      "inputs": [
        {
          "internalType": "address",
          "name": "user",
          "type": "address"
        },
        {
          "internalType": "address",
          "name": "addr",
          "type": "address"
        },
        {
          "internalType": "bool",
          "name": "status",
          "type": "bool"
        },
        {
          "internalType": "uint8",
          "name": "v",
          "type": "uint8"
        },
        {
          "internalType": "bytes32",
          "name": "r",
          "type": "bytes32"
        },
        {
          "internalType": "bytes32",
          "name": "s",
          "type": "bytes32"
        }
      ],
      "name": "approveContract",
      "outputs": [],
      "stateMutability": "nonpayable",
      "type": "function"
    },
    {
      "inputs": [
        {
          "internalType": "address",
          "name": "token",
          "type": "address"
        },
        {
          "internalType": "uint256",
          "name": "amount",
          "type": "uint256"
        }
      ],
      "name": "deposit",
      "outputs": [],
      "stateMutability": "payable",
      "type": "function"
    },
    {
      "inputs": [
        {
          "internalType": "address",
          "name": "user",
          "type": "address"
        },
        {
          "internalType": "address",
          "name": "token",
          "type": "address"
        }
      ],
      "name": "emergencyWithdraw",
      "outputs": [],
      "stateMutability": "nonpayable",
      "type": "function"
    },
    {
      "inputs": [
        {
          "internalType": "uint256",
          "name": "amount",
          "type": "uint256"
        }
      ],
      "name": "flashFee",
      "outputs": [
        {
          "internalType": "uint256",
          "name": "",
          "type": "uint256"
        }
      ],
      "stateMutability": "view",
      "type": "function"
    },
    {
      "inputs": [
        {
          "internalType": "contract IERC3156FlashBorrower",
          "name": "receiver",
          "type": "address"
        },
        {
          "internalType": "address",
          "name": "token",
          "type": "address"
        },
        {
          "internalType": "uint256",
          "name": "amount",
          "type": "uint256"
        },
        {
          "internalType": "bytes",
          "name": "data",
          "type": "bytes"
        }
      ],
      "name": "flashLoan",
      "outputs": [
        {
          "internalType": "bool",
          "name": "",
          "type": "bool"
        }
      ],
      "stateMutability": "nonpayable",
      "type": "function"
    },
    {
      "inputs": [],
      "name": "initialize",
      "outputs": [],
      "stateMutability": "nonpayable",
      "type": "function"
    },
    {
      "inputs": [
        {
          "internalType": "address",
          "name": "token",
          "type": "address"
        }
      ],
      "name": "maxFlashLoan",
      "outputs": [
        {
          "internalType": "uint256",
          "name": "",
          "type": "uint256"
        }
      ],
      "stateMutability": "view",
      "type": "function"
    },
    {
      "inputs": [],
      "name": "owner",
      "outputs": [
        {
          "internalType": "address",
          "name": "",
          "type": "address"
        }
      ],
      "stateMutability": "view",
      "type": "function"
    },
    {
      "inputs": [],
      "name": "paused",
      "outputs": [
        {
          "internalType": "bool",
          "name": "",
          "type": "bool"
        }
      ],
      "stateMutability": "view",
      "type": "function"
    },
    {
      "inputs": [],
      "name": "proxiableUUID",
      "outputs": [
        {
          "internalType": "bytes32",
          "name": "",
          "type": "bytes32"
        }
      ],
      "stateMutability": "view",
      "type": "function"
    },
    {
      "inputs": [],
      "name": "renounceOwnership",
      "outputs": [],
      "stateMutability": "nonpayable",
      "type": "function"
    },
    {
      "inputs": [
        {
          "internalType": "bool",
          "name": "pause",
          "type": "bool"
        }
      ],
      "name": "setPause",
      "outputs": [],
      "stateMutability": "nonpayable",
      "type": "function"
    },
    {
      "inputs": [
        {
          "internalType": "address",
          "name": "token",
          "type": "address"
        },
        {
          "internalType": "uint256",
          "name": "amount",
          "type": "uint256"
        }
      ],
      "name": "toShare",
      "outputs": [
        {
          "internalType": "uint256",
          "name": "share",
          "type": "uint256"
        }
      ],
      "stateMutability": "view",
      "type": "function"
    },
    {
      "inputs": [
        {
          "internalType": "address",
          "name": "token",
          "type": "address"
        },
        {
          "internalType": "uint256",
          "name": "share",
          "type": "uint256"
        }
      ],
      "name": "toUnderlying",
      "outputs": [
        {
          "internalType": "uint256",
          "name": "amount",
          "type": "uint256"
        }
      ],
      "stateMutability": "view",
      "type": "function"
    },
    {
      "inputs": [
        {
          "internalType": "address",
          "name": "user",
          "type": "address"
        },
        {
          "internalType": "address",
          "name": "receiver",
          "type": "address"
        },
        {
          "internalType": "address",
          "name": "token",
          "type": "address"
        },
        {
          "internalType": "uint256",
          "name": "share",
          "type": "uint256"
        }
      ],
      "name": "transfer",
      "outputs": [],
      "stateMutability": "payable",
      "type": "function"
    },
    {
      "inputs": [
        {
          "internalType": "address",
          "name": "newOwner",
          "type": "address"
        }
      ],
      "name": "transferOwnership",
      "outputs": [],
      "stateMutability": "nonpayable",
      "type": "function"
    },
    {
      "inputs": [
        {
          "internalType": "uint256",
          "name": "feeRate_",
          "type": "uint256"
        }
      ],
      "name": "updateFlashloanfeeRate",
      "outputs": [],
      "stateMutability": "nonpayable",
      "type": "function"
    },
    {
      "inputs": [
        {
          "internalType": "address",
          "name": "newImplementation",
          "type": "address"
        }
      ],
      "name": "upgradeTo",
      "outputs": [],
      "stateMutability": "nonpayable",
      "type": "function"
    },
    {
      "inputs": [
        {
          "internalType": "address",
          "name": "newImplementation",
          "type": "address"
        },
        {
          "internalType": "bytes",
          "name": "data",
          "type": "bytes"
        }
      ],
      "name": "upgradeToAndCall",
      "outputs": [],
      "stateMutability": "payable",
      "type": "function"
    },
    {
      "inputs": [
        {
          "internalType": "address",
          "name": "addr",
          "type": "address"
        },
        {
          "internalType": "address",
          "name": "token",
          "type": "address"
        }
      ],
      "name": "viewShare",
      "outputs": [
        {
          "internalType": "uint256",
          "name": "amount",
          "type": "uint256"
        }
      ],
      "stateMutability": "view",
      "type": "function"
    },
    {
      "inputs": [
        {
          "internalType": "address",
          "name": "user",
          "type": "address"
        },
        {
          "internalType": "address",
          "name": "token",
          "type": "address"
        },
        {
          "internalType": "uint256",
          "name": "share",
          "type": "uint256"
        }
      ],
      "name": "withdraw",
      "outputs": [],
      "stateMutability": "payable",
      "type": "function"
    }
  ],
  "transactionHash": "0xcda58f1efbb388dacb8ead53648972280094b88168743559df56337df871ff1e",
  "args": [],
  "solcInputHash": "4985b648fb65c2bdfb0fd89b193e637c",
  "bytecode": "0x60a06040523073ffffffffffffffffffffffffffffffffffffffff1660809073ffffffffffffffffffffffffffffffffffffffff1660601b8152503480156200004757600080fd5b50620000686200005c6200009f60201b60201c565b620000a760201b60201c565b60008060166101000a81548160ff02191690831515021790555060018081905550620000996200016c60201b60201c565b62000317565b600033905090565b60008060029054906101000a900473ffffffffffffffffffffffffffffffffffffffff16905081600060026101000a81548173ffffffffffffffffffffffffffffffffffffffff021916908373ffffffffffffffffffffffffffffffffffffffff1602179055508173ffffffffffffffffffffffffffffffffffffffff168173ffffffffffffffffffffffffffffffffffffffff167f8be0079c531659141344cd1fd0a4f28419497f9722a3daafe3b4186f6b6457e060405160405180910390a35050565b600060019054906101000a900460ff1615620001bf576040517f08c379a0000000000000000000000000000000000000000000000000000000008152600401620001b6906200026b565b60405180910390fd5b60ff801660008054906101000a900460ff1660ff161015620002315760ff6000806101000a81548160ff021916908360ff1602179055507f7f26b83ff96e1f2b6a682f133852f6798a09c465da95921460cefb384740249860ff6040516200022891906200028d565b60405180910390a15b565b600062000242602783620002aa565b91506200024f82620002c8565b604082019050919050565b6200026581620002bb565b82525050565b60006020820190508181036000830152620002868162000233565b9050919050565b6000602082019050620002a460008301846200025a565b92915050565b600082825260208201905092915050565b600060ff82169050919050565b7f496e697469616c697a61626c653a20636f6e747261637420697320696e69746960008201527f616c697a696e6700000000000000000000000000000000000000000000000000602082015250565b60805160601c614c79620003526000396000818161059a0152818161062901528181611062015281816110f101526112400152614c796000f3fe6080604052600436106101665760003560e01c80638237e538116100d1578063d500a9a21161008a578063d9caed1211610064578063d9caed121461050e578063dde284f71461052a578063f18d03cc14610553578063f2fde38b1461056f57610166565b8063d500a9a21461046b578063d78af5f1146104a8578063d9ac7b84146104d157610166565b80638237e538146103595780638da5cb5b14610384578063a7af467a146103af578063bedb86fb146103ec578063c2624e1e14610415578063d402e5831461044057610166565b80635c975abb116101235780635c975abb1461025d5780635cffe9de14610288578063613255ab146102c55780636382d9ad14610302578063715018a61461032b5780638129fc1c1461034257610166565b80633659cfe61461016b5780633f21c1b41461019457806347e7ef24146101bd5780634f1ef286146101d95780635299493b146101f557806352d1902d14610232575b600080fd5b34801561017757600080fd5b50610192600480360381019061018d91906131ac565b610598565b005b3480156101a057600080fd5b506101bb60048036038101906101b69190613274565b610747565b005b6101d760048036038101906101d291906133dc565b610b2c565b005b6101f360048036038101906101ee9190613388565b611060565b005b34801561020157600080fd5b5061021c600480360381019061021791906133dc565b61119d565b6040516102299190614066565b60405180910390f35b34801561023e57600080fd5b5061024761123c565b6040516102549190613bcd565b60405180910390f35b34801561026957600080fd5b506102726112f5565b60405161027f9190613bb2565b60405180910390f35b34801561029457600080fd5b506102af60048036038101906102aa9190613493565b61130b565b6040516102bc9190613bb2565b60405180910390f35b3480156102d157600080fd5b506102ec60048036038101906102e791906131ac565b6116b3565b6040516102f99190614066565b60405180910390f35b34801561030e57600080fd5b50610329600480360381019061032491906131d5565b6116fc565b005b34801561033757600080fd5b50610340611798565b005b34801561034e57600080fd5b506103576117ac565b005b34801561036557600080fd5b5061036e6118f2565b60405161037b9190613bcd565b60405180910390f35b34801561039057600080fd5b50610399611916565b6040516103a69190613ab2565b60405180910390f35b3480156103bb57600080fd5b506103d660048036038101906103d19190613513565b61193f565b6040516103e39190614066565b60405180910390f35b3480156103f857600080fd5b50610413600480360381019061040e9190613418565b611951565b005b34801561042157600080fd5b5061042a61197f565b6040516104379190614066565b60405180910390f35b34801561044c57600080fd5b50610455611985565b6040516104629190614066565b60405180910390f35b34801561047757600080fd5b50610492600480360381019061048d91906131d5565b61198d565b60405161049f9190614066565b60405180910390f35b3480156104b457600080fd5b506104cf60048036038101906104ca919061334c565b611a1c565b005b3480156104dd57600080fd5b506104f860048036038101906104f391906133dc565b611acd565b6040516105059190614066565b60405180910390f35b610528600480360381019061052391906132fd565b611bc0565b005b34801561053657600080fd5b50610551600480360381019061054c9190613513565b611bd9565b005b61056d60048036038101906105689190613211565b611c30565b005b34801561057b57600080fd5b50610596600480360381019061059191906131ac565b612056565b005b7f000000000000000000000000000000000000000000000000000000000000000073ffffffffffffffffffffffffffffffffffffffff163073ffffffffffffffffffffffffffffffffffffffff161415610627576040517f08c379a000000000000000000000000000000000000000000000000000000000815260040161061e90613d86565b60405180910390fd5b7f000000000000000000000000000000000000000000000000000000000000000073ffffffffffffffffffffffffffffffffffffffff166106666120da565b73ffffffffffffffffffffffffffffffffffffffff16146106bc576040517f08c379a00000000000000000000000000000000000000000000000000000000081526004016106b390613dc6565b60405180910390fd5b6106c581612131565b61074481600067ffffffffffffffff81111561070a577f4e487b7100000000000000000000000000000000000000000000000000000000600052604160045260246000fd5b6040519080825280601f01601f19166020018201604052801561073c5781602001600182028036833780820191505090505b50600061213c565b50565b61074f6122b9565b60011515600560008773ffffffffffffffffffffffffffffffffffffffff1673ffffffffffffffffffffffffffffffffffffffff16815260200190815260200160002060009054906101000a900460ff161515146107e2576040517f08c379a00000000000000000000000000000000000000000000000000000000081526004016107d990613ce6565b60405180910390fd5b600046905060007f8b73c3c69bb8fe3d512ecc4cf759cc79239f7b179b0ffacaa9a75d522b39400f6040518060400160405280600781526020017f5365745465737400000000000000000000000000000000000000000000000000815250805190602001206040518060400160405280600181526020017f310000000000000000000000000000000000000000000000000000000000000081525080519060200120848a60405160200161089a959493929190613c11565b60405160208183030381529060405280519060200120905060007f1582d6e9746507e8af04a1a7c592fe7a7394dae5ade26a3a592699faf990dfeb896040516020016108e7929190613be8565b60405160208183030381529060405280519060200120905060008282604051602001610914929190613a7b565b6040516020818303038152906040528051906020012090506000600182898989604051600081526020016040526040516109519493929190613c64565b6020604051602081039080840390855afa158015610973573d6000803e3d6000fd5b5050506020604051035190508a73ffffffffffffffffffffffffffffffffffffffff168173ffffffffffffffffffffffffffffffffffffffff161480156109e75750600073ffffffffffffffffffffffffffffffffffffffff168173ffffffffffffffffffffffffffffffffffffffff1614155b610a26576040517f08c379a0000000000000000000000000000000000000000000000000000000008152600401610a1d90614006565b60405180910390fd5b88600460008c73ffffffffffffffffffffffffffffffffffffffff1673ffffffffffffffffffffffffffffffffffffffff16815260200190815260200160002060008d73ffffffffffffffffffffffffffffffffffffffff1673ffffffffffffffffffffffffffffffffffffffff16815260200190815260200160002060006101000a81548160ff0219169083151502179055508973ffffffffffffffffffffffffffffffffffffffff168b73ffffffffffffffffffffffffffffffffffffffff167f2d8cdc62ade2968e7f6711f21364f790eb52239ead5edb4747ae7241d008ec028b604051610b179190613bb2565b60405180910390a35050505050505050505050565b60026001541415610b72576040517f08c379a0000000000000000000000000000000000000000000000000000000008152600401610b6990613fe6565b60405180910390fd5b6002600181905550610b826122b9565b6000829050818173ffffffffffffffffffffffffffffffffffffffff1663dd62ed3e33306040518363ffffffff1660e01b8152600401610bc3929190613acd565b60206040518083038186803b158015610bdb57600080fd5b505afa158015610bef573d6000803e3d6000fd5b505050506040513d601f19601f82011682018060405250810190610c13919061353c565b10158015610c22575060008214155b610c61576040517f08c379a0000000000000000000000000000000000000000000000000000000008152600401610c5890613f86565b60405180910390fd5b818173ffffffffffffffffffffffffffffffffffffffff166370a08231336040518263ffffffff1660e01b8152600401610c9b9190613ab2565b60206040518083038186803b158015610cb357600080fd5b505afa158015610cc7573d6000803e3d6000fd5b505050506040513d601f19601f82011682018060405250810190610ceb919061353c565b1015610d2c576040517f08c379a0000000000000000000000000000000000000000000000000000000008152600401610d2390614046565b60405180910390fd5b600080600660008673ffffffffffffffffffffffffffffffffffffffff1673ffffffffffffffffffffffffffffffffffffffff168152602001908152602001600020541415610e85576305f5e100905080600660008673ffffffffffffffffffffffffffffffffffffffff1673ffffffffffffffffffffffffffffffffffffffff16815260200190815260200160002081905550600660008573ffffffffffffffffffffffffffffffffffffffff1673ffffffffffffffffffffffffffffffffffffffff16815260200190815260200160002054600360003373ffffffffffffffffffffffffffffffffffffffff1673ffffffffffffffffffffffffffffffffffffffff16815260200190815260200160002060008673ffffffffffffffffffffffffffffffffffffffff1673ffffffffffffffffffffffffffffffffffffffff16815260200190815260200160002081905550610f69565b610e8f8484611acd565b905080600660008673ffffffffffffffffffffffffffffffffffffffff1673ffffffffffffffffffffffffffffffffffffffff1681526020019081526020016000206000828254610ee0919061418e565b9250508190555080600360003373ffffffffffffffffffffffffffffffffffffffff1673ffffffffffffffffffffffffffffffffffffffff16815260200190815260200160002060008673ffffffffffffffffffffffffffffffffffffffff1673ffffffffffffffffffffffffffffffffffffffff168152602001908152602001600020819055505b82600760008673ffffffffffffffffffffffffffffffffffffffff1673ffffffffffffffffffffffffffffffffffffffff1681526020019081526020016000206000828254610fb8919061418e565b92505081905550610fec3330858573ffffffffffffffffffffffffffffffffffffffff16612303909392919063ffffffff16565b8373ffffffffffffffffffffffffffffffffffffffff163373ffffffffffffffffffffffffffffffffffffffff167ff5681f9d0db1b911ac18ee83d515a1cf1051853a9eae418316a2fdf7dea427c5858460405161104b9291906140c1565b60405180910390a35050600180819055505050565b7f000000000000000000000000000000000000000000000000000000000000000073ffffffffffffffffffffffffffffffffffffffff163073ffffffffffffffffffffffffffffffffffffffff1614156110ef576040517f08c379a00000000000000000000000000000000000000000000000000000000081526004016110e690613d86565b60405180910390fd5b7f000000000000000000000000000000000000000000000000000000000000000073ffffffffffffffffffffffffffffffffffffffff1661112e6120da565b73ffffffffffffffffffffffffffffffffffffffff1614611184576040517f08c379a000000000000000000000000000000000000000000000000000000000815260040161117b90613dc6565b60405180910390fd5b61118d82612131565b6111998282600161213c565b5050565b6000600660008473ffffffffffffffffffffffffffffffffffffffff1673ffffffffffffffffffffffffffffffffffffffff16815260200190815260200160002054600760008573ffffffffffffffffffffffffffffffffffffffff1673ffffffffffffffffffffffffffffffffffffffff168152602001908152602001600020548361122a9190614215565b61123491906141e4565b905092915050565b60007f000000000000000000000000000000000000000000000000000000000000000073ffffffffffffffffffffffffffffffffffffffff163073ffffffffffffffffffffffffffffffffffffffff16146112cc576040517f08c379a00000000000000000000000000000000000000000000000000000000081526004016112c390613e06565b60405180910390fd5b7f360894a13ba1a3210667c828492db98dca3e2076cc3735a920a3ca505d382bbc60001b905090565b60008060169054906101000a900460ff16905090565b600060026001541415611353576040517f08c379a000000000000000000000000000000000000000000000000000000000815260040161134a90613fe6565b60405180910390fd5b60026001819055506113636122b9565b600085905060006113738661238c565b9050600760008873ffffffffffffffffffffffffffffffffffffffff1673ffffffffffffffffffffffffffffffffffffffff1681526020019081526020016000205486111580156113c45750600086115b611403576040517f08c379a00000000000000000000000000000000000000000000000000000000081526004016113fa90613da6565b60405180910390fd5b61142e88878473ffffffffffffffffffffffffffffffffffffffff166123b09092919063ffffffff16565b7f439148f0bbc682ca079e46d6e2c2f0c1e3b820f1a291b069d8882abf8cf18dd98873ffffffffffffffffffffffffffffffffffffffff166323e30c8b338a8a868b8b6040518763ffffffff1660e01b815260040161149296959493929190613b2d565b602060405180830381600087803b1580156114ac57600080fd5b505af11580156114c0573d6000803e3d6000fd5b505050506040513d601f19601f820116820180604052508101906114e4919061346a565b14611524576040517f08c379a000000000000000000000000000000000000000000000000000000000815260040161151b90614026565b60405180910390fd5b8086611530919061418e565b8273ffffffffffffffffffffffffffffffffffffffff166370a082318a6040518263ffffffff1660e01b81526004016115699190613ab2565b60206040518083038186803b15801561158157600080fd5b505afa158015611595573d6000803e3d6000fd5b505050506040513d601f19601f820116820180604052508101906115b9919061353c565b10156115fa576040517f08c379a00000000000000000000000000000000000000000000000000000000081526004016115f190613f26565b60405180910390fd5b6116328830838961160b919061418e565b8573ffffffffffffffffffffffffffffffffffffffff16612303909392919063ffffffff16565b8673ffffffffffffffffffffffffffffffffffffffff163373ffffffffffffffffffffffffffffffffffffffff167f22d730dab15dc8c763131b8337f8490a0d2c23ff240aff6893a045529c74aa0d888888866040516116959493929190614081565b60405180910390a36001925050506001808190555095945050505050565b6000600760008373ffffffffffffffffffffffffffffffffffffffff1673ffffffffffffffffffffffffffffffffffffffff168152602001908152602001600020549050919050565b611704612436565b61170c6124b4565b611794828383600360008773ffffffffffffffffffffffffffffffffffffffff1673ffffffffffffffffffffffffffffffffffffffff16815260200190815260200160002060008673ffffffffffffffffffffffffffffffffffffffff1673ffffffffffffffffffffffffffffffffffffffff168152602001908152602001600020546124fd565b5050565b6117a0612436565b6117aa60006129ec565b565b60008060019054906101000a900460ff161590508080156117dd5750600160008054906101000a900460ff1660ff16105b8061180a57506117ec30612ab1565b1580156118095750600160008054906101000a900460ff1660ff16145b5b611849576040517f08c379a000000000000000000000000000000000000000000000000000000000815260040161184090613e86565b60405180910390fd5b60016000806101000a81548160ff021916908360ff1602179055508015611886576001600060016101000a81548160ff0219169083151502179055505b611896611891612ad4565b6129ec565b80156118ef5760008060016101000a81548160ff0219169083151502179055507f7f26b83ff96e1f2b6a682f133852f6798a09c465da95921460cefb384740249860016040516118e69190613ca9565b60405180910390a15b50565b7f439148f0bbc682ca079e46d6e2c2f0c1e3b820f1a291b069d8882abf8cf18dd981565b60008060029054906101000a900473ffffffffffffffffffffffffffffffffffffffff16905090565b600061194a8261238c565b9050919050565b611959612436565b6001151581151514156119735761196e612adc565b61197c565b61197b612b3f565b5b50565b61271081565b6305f5e10081565b6000611997612436565b600360008473ffffffffffffffffffffffffffffffffffffffff1673ffffffffffffffffffffffffffffffffffffffff16815260200190815260200160002060008373ffffffffffffffffffffffffffffffffffffffff1673ffffffffffffffffffffffffffffffffffffffff16815260200190815260200160002054905092915050565b611a24612436565b80600560008473ffffffffffffffffffffffffffffffffffffffff1673ffffffffffffffffffffffffffffffffffffffff16815260200190815260200160002060006101000a81548160ff0219169083151502179055508173ffffffffffffffffffffffffffffffffffffffff167fa309ceeb30d412988552937096581dead170a31af7ef5fff94b34f7d22e15ca582604051611ac19190613bb2565b60405180910390a25050565b600080600660008573ffffffffffffffffffffffffffffffffffffffff1673ffffffffffffffffffffffffffffffffffffffff168152602001908152602001600020541415611b22576305f5e1009050611bba565b600760008473ffffffffffffffffffffffffffffffffffffffff1673ffffffffffffffffffffffffffffffffffffffff16815260200190815260200160002054600660008573ffffffffffffffffffffffffffffffffffffffff1673ffffffffffffffffffffffffffffffffffffffff1681526020019081526020016000205483611bad9190614215565b611bb791906141e4565b90505b92915050565b611bc86122b9565b611bd4833384846124fd565b505050565b611be1612436565b612710811115611c26576040517f08c379a0000000000000000000000000000000000000000000000000000000008152600401611c1d90613d26565b60405180910390fd5b8060028190555050565b60026001541415611c76576040517f08c379a0000000000000000000000000000000000000000000000000000000008152600401611c6d90613fe6565b60405180910390fd5b6002600181905550611c866122b9565b3373ffffffffffffffffffffffffffffffffffffffff168473ffffffffffffffffffffffffffffffffffffffff161480611da9575060011515600460003373ffffffffffffffffffffffffffffffffffffffff1673ffffffffffffffffffffffffffffffffffffffff16815260200190815260200160002060008673ffffffffffffffffffffffffffffffffffffffff1673ffffffffffffffffffffffffffffffffffffffff16815260200190815260200160002060009054906101000a900460ff161515148015611da8575060011515600560003373ffffffffffffffffffffffffffffffffffffffff1673ffffffffffffffffffffffffffffffffffffffff16815260200190815260200160002060009054906101000a900460ff161515145b5b611de8576040517f08c379a0000000000000000000000000000000000000000000000000000000008152600401611ddf90613e46565b60405180910390fd5b80600360008673ffffffffffffffffffffffffffffffffffffffff1673ffffffffffffffffffffffffffffffffffffffff16815260200190815260200160002060008473ffffffffffffffffffffffffffffffffffffffff1673ffffffffffffffffffffffffffffffffffffffff168152602001908152602001600020541015611ea7576040517f08c379a0000000000000000000000000000000000000000000000000000000008152600401611e9e90613ea6565b60405180910390fd5b80600360008673ffffffffffffffffffffffffffffffffffffffff1673ffffffffffffffffffffffffffffffffffffffff16815260200190815260200160002060008473ffffffffffffffffffffffffffffffffffffffff1673ffffffffffffffffffffffffffffffffffffffff1681526020019081526020016000206000828254611f33919061426f565b9250508190555080600360008573ffffffffffffffffffffffffffffffffffffffff1673ffffffffffffffffffffffffffffffffffffffff16815260200190815260200160002060008473ffffffffffffffffffffffffffffffffffffffff1673ffffffffffffffffffffffffffffffffffffffff1681526020019081526020016000206000828254611fc6919061418e565b925050819055508173ffffffffffffffffffffffffffffffffffffffff168373ffffffffffffffffffffffffffffffffffffffff168573ffffffffffffffffffffffffffffffffffffffff167fccab57021a3b13720db8355e162483e9eda425d8c9c490471700c451723b9f22846040516120419190614066565b60405180910390a46001808190555050505050565b61205e612436565b600073ffffffffffffffffffffffffffffffffffffffff168173ffffffffffffffffffffffffffffffffffffffff1614156120ce576040517f08c379a00000000000000000000000000000000000000000000000000000000081526004016120c590613d66565b60405180910390fd5b6120d7816129ec565b50565b60006121087f360894a13ba1a3210667c828492db98dca3e2076cc3735a920a3ca505d382bbc60001b612ba1565b60000160009054906101000a900473ffffffffffffffffffffffffffffffffffffffff16905090565b612139612436565b50565b6121687f4910fdfa16fed3260ed0e7147f7cc6da11a60208b5b9406d12a635614ffd914360001b612bab565b60000160009054906101000a900460ff161561218c5761218783612bb5565b6122b4565b8273ffffffffffffffffffffffffffffffffffffffff166352d1902d6040518163ffffffff1660e01b815260040160206040518083038186803b1580156121d257600080fd5b505afa92505050801561220357506040513d601f19601f82011682018060405250810190612200919061346a565b60015b612242576040517f08c379a000000000000000000000000000000000000000000000000000000000815260040161223990613ec6565b60405180910390fd5b7f360894a13ba1a3210667c828492db98dca3e2076cc3735a920a3ca505d382bbc60001b81146122a7576040517f08c379a000000000000000000000000000000000000000000000000000000000815260040161229e90613e66565b60405180910390fd5b506122b3838383612c6e565b5b505050565b6122c16112f5565b15612301576040517f08c379a00000000000000000000000000000000000000000000000000000000081526004016122f890613e26565b60405180910390fd5b565b612386846323b872dd60e01b85858560405160240161232493929190613af6565b604051602081830303815290604052907bffffffffffffffffffffffffffffffffffffffffffffffffffffffff19166020820180517bffffffffffffffffffffffffffffffffffffffffffffffffffffffff8381831617835250505050612c9a565b50505050565b60006127106002548361239f9190614215565b6123a991906141e4565b9050919050565b6124318363a9059cbb60e01b84846040516024016123cf929190613b89565b604051602081830303815290604052907bffffffffffffffffffffffffffffffffffffffffffffffffffffffff19166020820180517bffffffffffffffffffffffffffffffffffffffffffffffffffffffff8381831617835250505050612c9a565b505050565b61243e612ad4565b73ffffffffffffffffffffffffffffffffffffffff1661245c611916565b73ffffffffffffffffffffffffffffffffffffffff16146124b2576040517f08c379a00000000000000000000000000000000000000000000000000000000081526004016124a990613f06565b60405180910390fd5b565b6124bc6112f5565b6124fb576040517f08c379a00000000000000000000000000000000000000000000000000000000081526004016124f290613d06565b60405180910390fd5b565b60026001541415612543576040517f08c379a000000000000000000000000000000000000000000000000000000000815260040161253a90613fe6565b60405180910390fd5b60026001819055508273ffffffffffffffffffffffffffffffffffffffff168473ffffffffffffffffffffffffffffffffffffffff16148061266e575060011515600460008573ffffffffffffffffffffffffffffffffffffffff1673ffffffffffffffffffffffffffffffffffffffff16815260200190815260200160002060008673ffffffffffffffffffffffffffffffffffffffff1673ffffffffffffffffffffffffffffffffffffffff16815260200190815260200160002060009054906101000a900460ff16151514801561266d575060011515600560008573ffffffffffffffffffffffffffffffffffffffff1673ffffffffffffffffffffffffffffffffffffffff16815260200190815260200160002060009054906101000a900460ff161515145b5b6126ad576040517f08c379a00000000000000000000000000000000000000000000000000000000081526004016126a490613fc6565b60405180910390fd5b600360008573ffffffffffffffffffffffffffffffffffffffff1673ffffffffffffffffffffffffffffffffffffffff16815260200190815260200160002060008373ffffffffffffffffffffffffffffffffffffffff1673ffffffffffffffffffffffffffffffffffffffff1681526020019081526020016000205481111561276c576040517f08c379a000000000000000000000000000000000000000000000000000000000815260040161276390613d46565b60405180910390fd5b6000612778838361119d565b905080600760008573ffffffffffffffffffffffffffffffffffffffff1673ffffffffffffffffffffffffffffffffffffffff16815260200190815260200160002060008282546127c9919061426f565b92505081905550600360008673ffffffffffffffffffffffffffffffffffffffff1673ffffffffffffffffffffffffffffffffffffffff16815260200190815260200160002060008473ffffffffffffffffffffffffffffffffffffffff1673ffffffffffffffffffffffffffffffffffffffff16815260200190815260200160002054600660008573ffffffffffffffffffffffffffffffffffffffff1673ffffffffffffffffffffffffffffffffffffffff168152602001908152602001600020600082825461289b919061426f565b9250508190555081600360008773ffffffffffffffffffffffffffffffffffffffff1673ffffffffffffffffffffffffffffffffffffffff16815260200190815260200160002060008573ffffffffffffffffffffffffffffffffffffffff1673ffffffffffffffffffffffffffffffffffffffff168152602001908152602001600020600082825461292e919061426f565b9250508190555061296085828573ffffffffffffffffffffffffffffffffffffffff166123b09092919063ffffffff16565b8273ffffffffffffffffffffffffffffffffffffffff168473ffffffffffffffffffffffffffffffffffffffff168673ffffffffffffffffffffffffffffffffffffffff167fdb0230e5f7c72f547c1d2265595288af4b7ee5549071f0de974a8560a7758c5a85856040516129d69291906140c1565b60405180910390a4506001808190555050505050565b60008060029054906101000a900473ffffffffffffffffffffffffffffffffffffffff16905081600060026101000a81548173ffffffffffffffffffffffffffffffffffffffff021916908373ffffffffffffffffffffffffffffffffffffffff1602179055508173ffffffffffffffffffffffffffffffffffffffff168173ffffffffffffffffffffffffffffffffffffffff167f8be0079c531659141344cd1fd0a4f28419497f9722a3daafe3b4186f6b6457e060405160405180910390a35050565b6000808273ffffffffffffffffffffffffffffffffffffffff163b119050919050565b600033905090565b612ae46122b9565b6001600060166101000a81548160ff0219169083151502179055507f62e78cea01bee320cd4e420270b5ea74000d11b0c9f74754ebdbfc544b05a258612b28612ad4565b604051612b359190613ab2565b60405180910390a1565b612b476124b4565b60008060166101000a81548160ff0219169083151502179055507f5db9ee0a495bf2e6ff9c91a7834c1ba4fdd244a5e8aa4e537bd38aeae4b073aa612b8a612ad4565b604051612b979190613ab2565b60405180910390a1565b6000819050919050565b6000819050919050565b612bbe81612ab1565b612bfd576040517f08c379a0000000000000000000000000000000000000000000000000000000008152600401612bf490613ee6565b60405180910390fd5b80612c2a7f360894a13ba1a3210667c828492db98dca3e2076cc3735a920a3ca505d382bbc60001b612ba1565b60000160006101000a81548173ffffffffffffffffffffffffffffffffffffffff021916908373ffffffffffffffffffffffffffffffffffffffff16021790555050565b612c7783612d61565b600082511180612c845750805b15612c9557612c938383612db0565b505b505050565b6000612cfc826040518060400160405280602081526020017f5361666545524332303a206c6f772d6c6576656c2063616c6c206661696c65648152508573ffffffffffffffffffffffffffffffffffffffff16612ddd9092919063ffffffff16565b9050600081511115612d5c5780806020019051810190612d1c9190613441565b612d5b576040517f08c379a0000000000000000000000000000000000000000000000000000000008152600401612d5290613fa6565b60405180910390fd5b5b505050565b612d6a81612bb5565b8073ffffffffffffffffffffffffffffffffffffffff167fbc7cd75a20ee27fd9adebab32041f755214dbc6bffa90cc0225b39da2e5c2d3b60405160405180910390a250565b6060612dd58383604051806060016040528060278152602001614c1d60279139612df5565b905092915050565b6060612dec8484600085612ec2565b90509392505050565b6060612e0084612ab1565b612e3f576040517f08c379a0000000000000000000000000000000000000000000000000000000008152600401612e3690613f46565b60405180910390fd5b6000808573ffffffffffffffffffffffffffffffffffffffff1685604051612e679190613a64565b600060405180830381855af49150503d8060008114612ea2576040519150601f19603f3d011682016040523d82523d6000602084013e612ea7565b606091505b5091509150612eb7828286612fd6565b925050509392505050565b606082471015612f07576040517f08c379a0000000000000000000000000000000000000000000000000000000008152600401612efe90613de6565b60405180910390fd5b612f1085612ab1565b612f4f576040517f08c379a0000000000000000000000000000000000000000000000000000000008152600401612f4690613f66565b60405180910390fd5b6000808673ffffffffffffffffffffffffffffffffffffffff168587604051612f789190613a64565b60006040518083038185875af1925050503d8060008114612fb5576040519150601f19603f3d011682016040523d82523d6000602084013e612fba565b606091505b5091509150612fca828286612fd6565b92505050949350505050565b60608315612fe657829050613036565b600083511115612ff95782518084602001fd5b816040517f08c379a000000000000000000000000000000000000000000000000000000000815260040161302d9190613cc4565b60405180910390fd5b9392505050565b600061305061304b8461410f565b6140ea565b90508281526020810184848401111561306857600080fd5b613073848285614326565b509392505050565b60008135905061308a81614b92565b92915050565b60008135905061309f81614ba9565b92915050565b6000815190506130b481614ba9565b92915050565b6000813590506130c981614bc0565b92915050565b6000815190506130de81614bc0565b92915050565b60008083601f8401126130f657600080fd5b8235905067ffffffffffffffff81111561310f57600080fd5b60208301915083600182028301111561312757600080fd5b9250929050565b600082601f83011261313f57600080fd5b813561314f84826020860161303d565b91505092915050565b60008135905061316781614bd7565b92915050565b60008135905061317c81614bee565b92915050565b60008151905061319181614bee565b92915050565b6000813590506131a681614c05565b92915050565b6000602082840312156131be57600080fd5b60006131cc8482850161307b565b91505092915050565b600080604083850312156131e857600080fd5b60006131f68582860161307b565b92505060206132078582860161307b565b9150509250929050565b6000806000806080858703121561322757600080fd5b60006132358782880161307b565b94505060206132468782880161307b565b93505060406132578782880161307b565b92505060606132688782880161316d565b91505092959194509250565b60008060008060008060c0878903121561328d57600080fd5b600061329b89828a0161307b565b96505060206132ac89828a0161307b565b95505060406132bd89828a01613090565b94505060606132ce89828a01613197565b93505060806132df89828a016130ba565b92505060a06132f089828a016130ba565b9150509295509295509295565b60008060006060848603121561331257600080fd5b60006133208682870161307b565b93505060206133318682870161307b565b92505060406133428682870161316d565b9150509250925092565b6000806040838503121561335f57600080fd5b600061336d8582860161307b565b925050602061337e85828601613090565b9150509250929050565b6000806040838503121561339b57600080fd5b60006133a98582860161307b565b925050602083013567ffffffffffffffff8111156133c657600080fd5b6133d28582860161312e565b9150509250929050565b600080604083850312156133ef57600080fd5b60006133fd8582860161307b565b925050602061340e8582860161316d565b9150509250929050565b60006020828403121561342a57600080fd5b600061343884828501613090565b91505092915050565b60006020828403121561345357600080fd5b6000613461848285016130a5565b91505092915050565b60006020828403121561347c57600080fd5b600061348a848285016130cf565b91505092915050565b6000806000806000608086880312156134ab57600080fd5b60006134b988828901613158565b95505060206134ca8882890161307b565b94505060406134db8882890161316d565b935050606086013567ffffffffffffffff8111156134f857600080fd5b613504888289016130e4565b92509250509295509295909350565b60006020828403121561352557600080fd5b60006135338482850161316d565b91505092915050565b60006020828403121561354e57600080fd5b600061355c84828501613182565b91505092915050565b61356e816142a3565b82525050565b61357d816142b5565b82525050565b61358c816142c1565b82525050565b6135a361359e826142c1565b614399565b82525050565b60006135b58385614156565b93506135c2838584614326565b6135cb83614430565b840190509392505050565b60006135e182614140565b6135eb8185614167565b93506135fb818560208601614335565b80840191505092915050565b61361081614314565b82525050565b60006136218261414b565b61362b8185614172565b935061363b818560208601614335565b61364481614430565b840191505092915050565b600061365c602083614172565b915061366782614441565b602082019050919050565b600061367f601483614172565b915061368a8261446a565b602082019050919050565b60006136a2602883614172565b91506136ad82614493565b604082019050919050565b60006136c5602583614172565b91506136d0826144e2565b604082019050919050565b60006136e8602683614172565b91506136f382614531565b604082019050919050565b600061370b600283614183565b915061371682614580565b600282019050919050565b600061372e602c83614172565b9150613739826145a9565b604082019050919050565b6000613751601e83614172565b915061375c826145f8565b602082019050919050565b6000613774602c83614172565b915061377f82614621565b604082019050919050565b6000613797602683614172565b91506137a282614670565b604082019050919050565b60006137ba603883614172565b91506137c5826146bf565b604082019050919050565b60006137dd601083614172565b91506137e88261470e565b602082019050919050565b6000613800602183614172565b915061380b82614737565b604082019050919050565b6000613823602983614172565b915061382e82614786565b604082019050919050565b6000613846602e83614172565b9150613851826147d5565b604082019050919050565b6000613869601d83614172565b915061387482614824565b602082019050919050565b600061388c602e83614172565b91506138978261484d565b604082019050919050565b60006138af602d83614172565b91506138ba8261489c565b604082019050919050565b60006138d2602083614172565b91506138dd826148eb565b602082019050919050565b60006138f5602683614172565b915061390082614914565b604082019050919050565b6000613918602683614172565b915061392382614963565b604082019050919050565b600061393b601d83614172565b9150613946826149b2565b602082019050919050565b600061395e601b83614172565b9150613969826149db565b602082019050919050565b6000613981602a83614172565b915061398c82614a04565b604082019050919050565b60006139a4602183614172565b91506139af82614a53565b604082019050919050565b60006139c7601f83614172565b91506139d282614aa2565b602082019050919050565b60006139ea602283614172565b91506139f582614acb565b604082019050919050565b6000613a0d601783614172565b9150613a1882614b1a565b602082019050919050565b6000613a30602183614172565b9150613a3b82614b43565b604082019050919050565b613a4f816142fd565b82525050565b613a5e81614307565b82525050565b6000613a7082846135d6565b915081905092915050565b6000613a86826136fe565b9150613a928285613592565b602082019150613aa28284613592565b6020820191508190509392505050565b6000602082019050613ac76000830184613565565b92915050565b6000604082019050613ae26000830185613565565b613aef6020830184613565565b9392505050565b6000606082019050613b0b6000830186613565565b613b186020830185613565565b613b256040830184613a46565b949350505050565b600060a082019050613b426000830189613565565b613b4f6020830188613565565b613b5c6040830187613a46565b613b696060830186613a46565b8181036080830152613b7c8184866135a9565b9050979650505050505050565b6000604082019050613b9e6000830185613565565b613bab6020830184613a46565b9392505050565b6000602082019050613bc76000830184613574565b92915050565b6000602082019050613be26000830184613583565b92915050565b6000604082019050613bfd6000830185613583565b613c0a6020830184613565565b9392505050565b600060a082019050613c266000830188613583565b613c336020830187613583565b613c406040830186613583565b613c4d6060830185613a46565b613c5a6080830184613565565b9695505050505050565b6000608082019050613c796000830187613583565b613c866020830186613a55565b613c936040830185613583565b613ca06060830184613583565b95945050505050565b6000602082019050613cbe6000830184613607565b92915050565b60006020820190508181036000830152613cde8184613616565b905092915050565b60006020820190508181036000830152613cff8161364f565b9050919050565b60006020820190508181036000830152613d1f81613672565b9050919050565b60006020820190508181036000830152613d3f81613695565b9050919050565b60006020820190508181036000830152613d5f816136b8565b9050919050565b60006020820190508181036000830152613d7f816136db565b9050919050565b60006020820190508181036000830152613d9f81613721565b9050919050565b60006020820190508181036000830152613dbf81613744565b9050919050565b60006020820190508181036000830152613ddf81613767565b9050919050565b60006020820190508181036000830152613dff8161378a565b9050919050565b60006020820190508181036000830152613e1f816137ad565b9050919050565b60006020820190508181036000830152613e3f816137d0565b9050919050565b60006020820190508181036000830152613e5f816137f3565b9050919050565b60006020820190508181036000830152613e7f81613816565b9050919050565b60006020820190508181036000830152613e9f81613839565b9050919050565b60006020820190508181036000830152613ebf8161385c565b9050919050565b60006020820190508181036000830152613edf8161387f565b9050919050565b60006020820190508181036000830152613eff816138a2565b9050919050565b60006020820190508181036000830152613f1f816138c5565b9050919050565b60006020820190508181036000830152613f3f816138e8565b9050919050565b60006020820190508181036000830152613f5f8161390b565b9050919050565b60006020820190508181036000830152613f7f8161392e565b9050919050565b60006020820190508181036000830152613f9f81613951565b9050919050565b60006020820190508181036000830152613fbf81613974565b9050919050565b60006020820190508181036000830152613fdf81613997565b9050919050565b60006020820190508181036000830152613fff816139ba565b9050919050565b6000602082019050818103600083015261401f816139dd565b9050919050565b6000602082019050818103600083015261403f81613a00565b9050919050565b6000602082019050818103600083015261405f81613a23565b9050919050565b600060208201905061407b6000830184613a46565b92915050565b60006060820190506140966000830187613a46565b81810360208301526140a98185876135a9565b90506140b86040830184613a46565b95945050505050565b60006040820190506140d66000830185613a46565b6140e36020830184613a46565b9392505050565b60006140f4614105565b90506141008282614368565b919050565b6000604051905090565b600067ffffffffffffffff82111561412a57614129614401565b5b61413382614430565b9050602081019050919050565b600081519050919050565b600081519050919050565b600082825260208201905092915050565b600081905092915050565b600082825260208201905092915050565b600081905092915050565b6000614199826142fd565b91506141a4836142fd565b9250827fffffffffffffffffffffffffffffffffffffffffffffffffffffffffffffffff038211156141d9576141d86143a3565b5b828201905092915050565b60006141ef826142fd565b91506141fa836142fd565b92508261420a576142096143d2565b5b828204905092915050565b6000614220826142fd565b915061422b836142fd565b9250817fffffffffffffffffffffffffffffffffffffffffffffffffffffffffffffffff0483118215151615614264576142636143a3565b5b828202905092915050565b600061427a826142fd565b9150614285836142fd565b925082821015614298576142976143a3565b5b828203905092915050565b60006142ae826142dd565b9050919050565b60008115159050919050565b6000819050919050565b60006142d6826142a3565b9050919050565b600073ffffffffffffffffffffffffffffffffffffffff82169050919050565b6000819050919050565b600060ff82169050919050565b600061431f82614307565b9050919050565b82818337600083830152505050565b60005b83811015614353578082015181840152602081019050614338565b83811115614362576000848401525b50505050565b61437182614430565b810181811067ffffffffffffffff821117156143905761438f614401565b5b80604052505050565b6000819050919050565b7f4e487b7100000000000000000000000000000000000000000000000000000000600052601160045260246000fd5b7f4e487b7100000000000000000000000000000000000000000000000000000000600052601260045260246000fd5b7f4e487b7100000000000000000000000000000000000000000000000000000000600052604160045260246000fd5b6000601f19601f8301169050919050565b7f5661756c743a20636f6e7472616374206d75737420626520616c6c6f7765642e600082015250565b7f5061757361626c653a206e6f7420706175736564000000000000000000000000600082015250565b7f5661756c743a20666c6173686c6f616e2066656520697320677265617465722060008201527f7468616e206d6178000000000000000000000000000000000000000000000000602082015250565b7f5661756c743a20776974686472617720616d6f756e74206973206e6f7420656e60008201527f6f7567682e000000000000000000000000000000000000000000000000000000602082015250565b7f4f776e61626c653a206e6577206f776e657220697320746865207a65726f206160008201527f6464726573730000000000000000000000000000000000000000000000000000602082015250565b7f1901000000000000000000000000000000000000000000000000000000000000600082015250565b7f46756e6374696f6e206d7573742062652063616c6c6564207468726f7567682060008201527f64656c656761746563616c6c0000000000000000000000000000000000000000602082015250565b7f5661756c743a20666c6173684c6f616e20616d6f756e74204572726f722e0000600082015250565b7f46756e6374696f6e206d7573742062652063616c6c6564207468726f7567682060008201527f6163746976652070726f78790000000000000000000000000000000000000000602082015250565b7f416464726573733a20696e73756666696369656e742062616c616e636520666f60008201527f722063616c6c0000000000000000000000000000000000000000000000000000602082015250565b7f555550535570677261646561626c653a206d757374206e6f742062652063616c60008201527f6c6564207468726f7567682064656c656761746563616c6c0000000000000000602082015250565b7f5061757361626c653a2070617573656400000000000000000000000000000000600082015250565b7f5661756c743a207472616e73666572207065726d697373696f6e206572726f7260008201527f2e00000000000000000000000000000000000000000000000000000000000000602082015250565b7f45524331393637557067726164653a20756e737570706f727465642070726f7860008201527f6961626c65555549440000000000000000000000000000000000000000000000602082015250565b7f496e697469616c697a61626c653a20636f6e747261637420697320616c72656160008201527f647920696e697469616c697a6564000000000000000000000000000000000000602082015250565b7f5661756c743a207472616e7366657220616d6f756e74206572726f722e000000600082015250565b7f45524331393637557067726164653a206e657720696d706c656d656e7461746960008201527f6f6e206973206e6f742055555053000000000000000000000000000000000000602082015250565b7f455243313936373a206e657720696d706c656d656e746174696f6e206973206e60008201527f6f74206120636f6e747261637400000000000000000000000000000000000000602082015250565b7f4f776e61626c653a2063616c6c6572206973206e6f7420746865206f776e6572600082015250565b7f5661756c743a20466c617368426f72726f776572206661696c656420666c617360008201527f684c6f616e2e0000000000000000000000000000000000000000000000000000602082015250565b7f416464726573733a2064656c65676174652063616c6c20746f206e6f6e2d636f60008201527f6e74726163740000000000000000000000000000000000000000000000000000602082015250565b7f416464726573733a2063616c6c20746f206e6f6e2d636f6e7472616374000000600082015250565b7f5661756c743a20596f75206d75737420626520617070726f76652e0000000000600082015250565b7f5361666545524332303a204552433230206f7065726174696f6e20646964206e60008201527f6f74207375636365656400000000000000000000000000000000000000000000602082015250565b7f5661756c743a207769746864726177207065726d697373696f6e206572726f7260008201527f2e00000000000000000000000000000000000000000000000000000000000000602082015250565b7f5265656e7472616e637947756172643a207265656e7472616e742063616c6c00600082015250565b7f417070726f766546756e6374696f6e3a20696e76616c6964207369676e61747560008201527f7265000000000000000000000000000000000000000000000000000000000000602082015250565b7f5661756c743a2043616c6c6261636b206661696c65642e000000000000000000600082015250565b7f5661756c743a206465706f73697420616d6f756e74206e6f7420656e6f75676860008201527f2e00000000000000000000000000000000000000000000000000000000000000602082015250565b614b9b816142a3565b8114614ba657600080fd5b50565b614bb2816142b5565b8114614bbd57600080fd5b50565b614bc9816142c1565b8114614bd457600080fd5b50565b614be0816142cb565b8114614beb57600080fd5b50565b614bf7816142fd565b8114614c0257600080fd5b50565b614c0e81614307565b8114614c1957600080fd5b5056fe416464726573733a206c6f772d6c6576656c2064656c65676174652063616c6c206661696c6564a2646970667358221220d1e81858873021d8269e84093f11179ec158dc9c62e6c07a8f497e7c06f6ae5e64736f6c63430008040033",
  "devdoc": {
    "author": "MasterDevv",
    "details": "Extension of {ERC20} that allows flash lending.",
    "kind": "dev",
    "methods": {
      "allowContract(address,bool)": {
        "details": "Admin can add or remove contracts to the whitelist.",
        "params": {
          "addr": "contract address that you'll add or remove in whitelist.",
          "status": "add: true, remove: false"
        }
      },
      "approveContract(address,address,bool,uint8,bytes32,bytes32)": {
        "details": "This function will enable or disable the whitelisted contracts to transfer or withdraw user's vault shares. EIP712 hashing and signing method.",
        "params": {
          "addr": "user's approved contract(whiteList) == FlashBorrower's address",
          "r": "EIP712 hashing param r",
          "s": "EIP712 hashing param s",
          "status": "enable(true) or disable",
          "user": "user's address",
          "v": "EIP712 hashing param v"
        }
      },
      "constructor": {
        "details": "disable initialization action for the origin contract"
      },
      "deposit(address,uint256)": {
        "details": "User deposits any ERC20 tokens into vault and get vault shares.",
        "params": {
          "amount": "Amount to deposit.",
          "token": "Token address to deposit."
        }
      },
      "emergencyWithdraw(address,address)": {
        "details": "Admin can call this function to do emergency withdraw any ERC20 tokens when the vault is paused.",
        "params": {
          "token": "ERC20token address for withdraw",
          "user": "user's address for withdraw"
        }
      },
      "flashFee(uint256)": {
        "details": "The fee to be charged for a given loan.",
        "params": {
          "amount": "The amount of tokens lent."
        },
        "returns": {
          "_0": "The amount of `token` to be charged for the loan, on top of the returned principal."
        }
      },
      "flashLoan(address,address,uint256,bytes)": {
        "details": "Loan `amount` tokens to `receiver`, and takes it back plus a `flashFee` after the callback.",
        "params": {
          "amount": "The amount of tokens lent.",
          "data": "A data parameter to be passed on to the `receiver` for any custom use.",
          "receiver": "The contract receiving the tokens, needs to implement the `onFlashLoan(address user, uint256 amount, uint256 fee, bytes calldata)` interface.",
          "token": "The loan currency."
        }
      },
      "initialize()": {
        "details": "note: set the caller as the onwer."
      },
      "maxFlashLoan(address)": {
        "details": "The amount of currency available to be lent.",
        "params": {
          "token": "The loan currency."
        },
        "returns": {
          "_0": "The amount of `token` that can be borrowed."
        }
      },
      "owner()": {
        "details": "Returns the address of the current owner."
      },
      "paused()": {
        "details": "Returns true if the contract is paused, and false otherwise."
      },
      "proxiableUUID()": {
        "details": "Implementation of the ERC1822 {proxiableUUID} function. This returns the storage slot used by the implementation. It is used to validate that the this implementation remains valid after an upgrade. IMPORTANT: A proxy pointing at a proxiable contract should not be considered proxiable itself, because this risks bricking a proxy that upgrades to it, by delegating to itself until out of gas. Thus it is critical that this function revert if invoked through a proxy. This is guaranteed by the `notDelegated` modifier."
      },
      "renounceOwnership()": {
        "details": "Leaves the contract without owner. It will not be possible to call `onlyOwner` functions anymore. Can only be called by the current owner. NOTE: Renouncing ownership will leave the contract without an owner, thereby removing any functionality that is only available to the owner."
      },
      "setPause(bool)": {
        "details": "Admin can pause/unpause all the above main functions.",
        "params": {
          "pause": "paused status(true: pause, false: unpause)"
        }
      },
      "toShare(address,uint256)": {
        "details": "Helper view function that represents an amount of token in shares.",
        "params": {
          "amount": "amount of ERC20Token",
          "token": "ERC20Token interface for convert"
        }
      },
      "toUnderlying(address,uint256)": {
        "details": "Helper view function that represents shares back into the token amount",
        "params": {
          "share": "share of ERC20Token",
          "token": "ERC20Token interface for convert"
        }
      },
      "transfer(address,address,address,uint256)": {
        "details": "Transfer Function to transfer vault shares from one to another. Note This function can be called by user and user-approved contracts.",
        "params": {
          "receiver": "receiver address to transfer",
          "share": "A amount of vault share to transfer",
          "token": "token(ERC20) address to transfer",
          "user": "spender address to transfer"
        }
      },
      "transferOwnership(address)": {
        "details": "Transfers ownership of the contract to a new account (`newOwner`). Can only be called by the current owner."
      },
      "updateFlashloanfeeRate(uint256)": {
        "details": "Admin can update the flashLoanfeeRate using this.",
        "params": {
          "feeRate_": "flashLoan-feeRate that you'll update."
        }
      },
      "upgradeTo(address)": {
        "details": "Upgrade the implementation of the proxy to `newImplementation`. Calls {_authorizeUpgrade}. Emits an {Upgraded} event."
      },
      "upgradeToAndCall(address,bytes)": {
        "details": "Upgrade the implementation of the proxy to `newImplementation`, and subsequently execute the function call encoded in `data`. Calls {_authorizeUpgrade}. Emits an {Upgraded} event."
      },
      "withdraw(address,address,uint256)": {
        "details": "User withdraws the underlying tokens with vault shares. Note This function can be called by user and user-approved contracts.",
        "params": {
          "share": "Vault share to withdraw.",
          "token": "Token address to withdraw.",
          "user": "User address to withdraw."
        }
      }
    },
    "version": 1
  },
  "userdoc": {
    "kind": "user",
    "methods": {
      "deposit(address,uint256)": {
        "notice": "In other words, User should be send to Vault Contract."
      },
      "initialize()": {
        "notice": "initialize contract (execute only once)"
      }
    },
    "version": 1
  },
  "storageLayout": {
    "storage": [
      {
        "astId": 509,
        "contract": "contracts/Vault.sol:Vault",
        "label": "_initialized",
        "offset": 0,
        "slot": "0",
        "type": "t_uint8"
      },
      {
        "astId": 512,
        "contract": "contracts/Vault.sol:Vault",
        "label": "_initializing",
        "offset": 1,
        "slot": "0",
        "type": "t_bool"
      },
      {
        "astId": 7,
        "contract": "contracts/Vault.sol:Vault",
        "label": "_owner",
        "offset": 2,
        "slot": "0",
        "type": "t_address"
      },
      {
        "astId": 787,
        "contract": "contracts/Vault.sol:Vault",
        "label": "_paused",
        "offset": 22,
        "slot": "0",
        "type": "t_bool"
      },
      {
        "astId": 888,
        "contract": "contracts/Vault.sol:Vault",
        "label": "_status",
        "offset": 0,
        "slot": "1",
        "type": "t_uint256"
      },
      {
        "astId": 2343,
        "contract": "contracts/Vault.sol:Vault",
        "label": "feeRate",
        "offset": 0,
        "slot": "2",
        "type": "t_uint256"
      },
      {
        "astId": 2349,
        "contract": "contracts/Vault.sol:Vault",
        "label": "userShares",
        "offset": 0,
        "slot": "3",
        "type": "t_mapping(t_address,t_mapping(t_address,t_uint256))"
      },
      {
        "astId": 2355,
        "contract": "contracts/Vault.sol:Vault",
        "label": "whiteList",
        "offset": 0,
        "slot": "4",
        "type": "t_mapping(t_address,t_mapping(t_address,t_bool))"
      },
      {
        "astId": 2359,
        "contract": "contracts/Vault.sol:Vault",
        "label": "allowedContracts",
        "offset": 0,
        "slot": "5",
        "type": "t_mapping(t_address,t_bool)"
      },
      {
        "astId": 2363,
        "contract": "contracts/Vault.sol:Vault",
        "label": "totalShares",
        "offset": 0,
        "slot": "6",
        "type": "t_mapping(t_address,t_uint256)"
      },
      {
        "astId": 2367,
        "contract": "contracts/Vault.sol:Vault",
        "label": "totalAmounts",
        "offset": 0,
        "slot": "7",
        "type": "t_mapping(t_address,t_uint256)"
      }
    ],
    "types": {
      "t_address": {
        "encoding": "inplace",
        "label": "address",
        "numberOfBytes": "20"
      },
      "t_bool": {
        "encoding": "inplace",
        "label": "bool",
        "numberOfBytes": "1"
      },
      "t_mapping(t_address,t_bool)": {
        "encoding": "mapping",
        "key": "t_address",
        "label": "mapping(address => bool)",
        "numberOfBytes": "32",
        "value": "t_bool"
      },
      "t_mapping(t_address,t_mapping(t_address,t_bool))": {
        "encoding": "mapping",
        "key": "t_address",
        "label": "mapping(address => mapping(address => bool))",
        "numberOfBytes": "32",
        "value": "t_mapping(t_address,t_bool)"
      },
      "t_mapping(t_address,t_mapping(t_address,t_uint256))": {
        "encoding": "mapping",
        "key": "t_address",
        "label": "mapping(address => mapping(address => uint256))",
        "numberOfBytes": "32",
        "value": "t_mapping(t_address,t_uint256)"
      },
      "t_mapping(t_address,t_uint256)": {
        "encoding": "mapping",
        "key": "t_address",
        "label": "mapping(address => uint256)",
        "numberOfBytes": "32",
        "value": "t_uint256"
      },
      "t_uint256": {
        "encoding": "inplace",
        "label": "uint256",
        "numberOfBytes": "32"
      },
      "t_uint8": {
        "encoding": "inplace",
        "label": "uint8",
        "numberOfBytes": "1"
      }
    }
  }
}